:100000000C942A000C9434000C9434000C943400AA
:100010000C9434000C9434000C9434000C94340090
:100020000C9434000C9434000C9434000C94340080
:100030000C9434000C9434000C9434000C94340070
:100040000C9434000C9434000C9434000C94340060
:100050000C94340011241FBECFE5D8E0DEBFCDBF25
:100060000E9436000C94E2000C940000DF93CF93C2
:10007000CDB7DEB784E390E061E00E945C0085E3E9
:1000800090E061E00E947E0081E390E062E00E94E7
:100090007E0080E390E062E00E94C300882331F498
:1000A00085E390E061E00E945C00F3CF85E390E09F
:1000B00061E00E947E00EDCFDF93CF9300D00F92DE
:1000C000CDB7DEB79A8389836B83E981FA8180811A
:1000D000482F8B81282F30E081E090E0022E02C073
:1000E000880F991F0A94E2F7842BE981FA818083B3
:1000F0000F900F900F90CF91DF910895DF93CF93E2
:1001000000D00F92CDB7DEB79A8389836B83E981E4
:10011000FA818081482F8B81282F30E081E090E0A8
:10012000022E02C0880F991F0A94E2F7809584235B
:10013000E981FA8180830F900F900F90CF91DF912A
:100140000895DF93CF9300D00F92CDB7DEB79A8397
:1001500089836B83E981FA818081482F8B81282FE5
:1001600030E081E090E0022E02C0880F991F0A94CF
:10017000E2F78427E981FA8180830F900F900F9036
:10018000CF91DF910895DF93CF9300D00F92CDB739
:10019000DEB79A8389836B83E981FA818081482F56
:1001A0008B81282F30E081E090E0022E02C0880F82
:1001B000991F0A94E2F784230F900F900F90CF912C
:0801C000DF910895F894FFCFD0
:00000001FF
